:020000040800F2
:10000000380D002055010008E90500088D010008A1
:10001000E50500086F050008590100080000000010
:10002000000000000000000000000000EB050008D8
:100030007305000800000000D3010008ED0500086A
:100040009D0100089D0100089D0100089D01000818
:100050009D0100089D0100089D0100089D01000808
:100060009D0100089D0100089D0100089D010008F8
:100070009D0100089D0100089D0100089D010008E8
:100080009D0100089D0100089D0100089D010008D8
:100090009D0100089D0100089D0100089D010008C8
:1000A0009D0100089D0100089D0100089D010008B8
:1000B0009D0100089D0100089D0100089D010008A8
:1000C0009D0100089D0100089D0100089D01000898
:1000D0009D010008350600089D0100089D010008EB
:1000E0009D0100089D0100089D0100089D01000878
:1000F0009D0100089D0100089D0100089D01000868
:100100009D0100089D0100089D0100089D01000857
:100110009D0100089D0100089D0100089D01000847
:100120009D0100089D0100089D0100089D01000837
:10013000DFF80CD000F0EAF900480047451A000843
:10014000380D0020002804D090FAA0F0B0FA80F01A
:10015000401C7047124800471EF0040F0CBFEFF31D
:100160000880EFF3098020E9F00F40F804ED1EF05D
:10017000040F0CBF80F3088880F3098800B501F0F4
:10018000AFF85DF804EB4EF0040E7047E4E7FEE7CD
:10019000FEE7FEE7FEE7FEE7FEE7FEE7FEE700001C
:1001A00031010008EFF3108072B6704780F31088B9
:1001B0007047274A1368012B04D04FF001031360E6
:1001C000244A1060244A116024484FF08051016095
:1001D0007047EFF3108272B61D48016891B14FF07D
:1001E000000101601B48016829B1EFF3098121E991
:1001F000F00F00680160184909680968B1E8F00F5C
:1002000081F3098882F310884EF0040E704712497A
:10021000086010494FF0000008600D494FF00100E0
:1002200008600F480F49D0F8002041EA0201016040
:100230000A484FF0805101600B480068006880F365
:10024000088861B662B6BFF34F8FBFF36F8F7047F8
:100250002C000020240000202800002004ED00E0F5
:1002600020ED00E00000FFFF08ED00E0421C10F868
:10027000011B0029FBD1801A7047F0B480EA01020B
:10028000D40F4200B2EB410F02D20246084611469B
:100290004A0042D0C30DDDB2C1F3C752AD1A202DC2
:1002A00035DAC1F3160141F4000204B15242C5F13E
:1002B000200602FA06F12A411044B3EBD05F23D0A6
:1002C000C4B1012DA0EBC35009DCF0BC4FF00042DB
:1002D00002EAC352DBB200F5000000F0E9B84000CA
:1002E00000F1807000EBC350A0F1807040EAD17043
:1002F000490009E0490841EAC071A0EBC35000F58C
:100300000000400800EBC350F0BC00F0C8B86142E8
:10031000012202EB4101001BF6E7F0BC704781F0BF
:100320000041AAE780F00040A7E780EA010210B58B
:1003300002F00043400022D04A001FD0010E01EB22
:100340001261C0F35600C2F3560240F4000042F4BA
:100350000002A0FB022000047F39140400D0401CDE
:1003600050EA124001D44000491EC2B20C0604EB10
:10037000D010401C4008802A02D003E0002010BDAD
:1003800020F00100002900DA0020184310BD30B42D
:1003900080EA010202F0004530F0004221F0004006
:1003A00013D090B1C30DD40DC2F31601C0F31600E3
:1003B000E41A41F4000140F400027D34914201D37B
:1003C000641C00E04900002C02DA30BC00207047B9
:1003D0004FF400000023914201D3891A03434008DF
:1003E0004FEA4101F7D151B1914202D14FF00041A2
:1003F00005E002D24FF0010101E06FF0010103EBD3
:10040000C450284430BC00F04AB89623002211465C
:1004100000F04EB820F00040C10DC0F3160040F4CB
:1004200000007F2901DA00207047962903DCC1F122
:100430009601C84070479639884070472DE9F05FB3
:100440000546002092469B46884606468146402443
:100450001BE0284641464746224600F078F85346BE
:100460005A46C01A914110D311461846224600F050
:100470005FF82D1A67EB01084F4622460120002144
:1004800000F056F817EB00094E41201EA4F10104BC
:10049000DFDC484631462A464346BDE8F09F002946
:1004A000A8BF7047401C490008BF20F001007047FA
:1004B00010B4B0FA80FC00FA0CF050EA010404BF5A
:1004C00010BC704749B1CCF1200421FA04F411FAB0
:1004D0000CF118BF012121430843A3EB0C01CB1DF4
:1004E0004FEA00614FEA102042BF002010BC704765
:1004F00000EBC35010440029A4BF10BC7047401C3F
:10050000490008BF20F0010010BC7047064C074DA1
:1005100006E0E06840F0010394E8070098471034D3
:10052000AC42F6D3FFF708FE5823000878230008F2
:10053000202A04DB203A00FA02F1002070479140A3
:10054000C2F1200320FA03F3194390407047202A98
:1005500004DB203A21FA02F00021704721FA02F36D
:10056000D040C2F12002914008431946704700BFB5
:10057000FEE770471848806940F008001649886116
:100580000846806940F0040088611448006820F043
:100590000F00124908600846006840F00300086038
:1005A0000E480830006840F480700C49083108603B
:1005B0000B48006820F0F000094908600846006810
:1005C00040F03000086006480C30006840F002003F
:1005D00003490C310860704700100240040C0140D0
:1005E0000008014000BFFEE77047704710B5FFF7F5
:1005F000D9FD044607480068401C0649086001F020
:1006000045F904480068401E024908602046FFF78B
:10061000CDFD10BD0400002003204FF0E021086153
:100620000846006920F00400086141F63F70486107
:100630007047000010B50648006800F0200028B19F
:1006400001220349091D034800F003FE10BD00000C
:1006500000380140240800200FB4054B10B503A951
:10066000044A029800F084F910BC5DF814FB000005
:10067000851100083000002000F01F020121914088
:100680004209920002F1E022C2F800117047F0B571
:1006900003460C4603F00701C1F10700042801D905
:1006A000042001E0C1F107000646081D072801D219
:1006B000002000E0C81E05460120B040401E20403A
:1006C000A8400127AF407F1E17403843F0BD00000F
:1006D00010B5002806DA0A07140E054A00F00F03C9
:1006E0001B1FD4540A07130E024A135410BD0000F6
:1006F00018ED00E000E400E00146072323EA0102D0
:10070000054B18684FF6FF031840044B034343EAB8
:100710000220014B186070470CED00E00000FA0564
:1007200070B5044606480068FFF70CFD451E054AF3
:1007300052F83510A1F1440006462560304670BDE0
:1007400008000020D404002010B50446B2FBF3F2E8
:10075000002020606060E160501EA060002010BD9D
:100760005060026041600860704702E008C8121FD4
:1007700008C1002AFAD170477047002001E001C18A
:10078000121F002AFBD170472DE9F0410446FFF704
:1007900009FD074622480068844208D1207D20F0E8
:1007A000070040F0030020753846FFF7FFFC207D6E
:1007B00000F00700032819D1207D00F0070040B1A8
:1007C000607D184A02EBC00104F1440000F072FDA4
:1007D00014E004F14406607D124901EBC00529468E
:1007E00030462A68FFF7BCFF00BF07E0607D0D4A76
:1007F00002EBC00104F1440000F05CFD0A49E0692D
:100800000968084308490860207D20F0070040F08F
:10081000020020753846FFF7C9FCBDE8F0810000F2
:1008200010000020D40400200800002070B50A4801
:100830000468FFF7B7FC0546204600F0AFFE04F160
:10084000280000F054F8012020752846FFF7AEFC80
:1008500000F0C6FE70BD00001000002070B5044618
:100860002546FFF79FFC06466FF00100286205F160
:10087000440000F028FD2846FFF786FF3046FFF7CA
:1008800095FC00F0ADFE70BD2DE9F04704460E4624
:1008900017469846DDF82090002584F81890207EB1
:1008A00020F001002076A660E76000206061C4F8B7
:1008B000108000BF04E004EBC50000F00DFD6D1CCE
:1008C000012DF8DBBDE8F08710B5024600210BE0F2
:1008D00002EBC100D0E900436360D0E9003423603B
:1008E0000060406000BF491C0129F1DB10BD10B55C
:1008F00004462046FFF7E8FF207E20F00100207626
:10090000002010BD2DE9F04389B006468846914687
:10091000002400E0641C444505D2305D202802D04C
:10092000305D0928F6D124B94FF0FF3009B0BDE899
:10093000F0832146304601F045F9054615B94FF0E0
:10094000FF30F3E72022002101A800F01CFE01AADD
:100950004146304601F09AF9074617B94FF0FF308B
:10096000E4E701A93846A847C9F800000020DDE700
:100970002DE9FF4F8DB00F460546002606E02528DD
:100980000BD0DDE90F1290476D1C761C28780028EB
:10099000F5D111B03046BDE8F08F0024A246A14643
:1009A0000122EC4900E0044315F8013F203B02FA24
:1009B00003F00842F7D128782A2810D06FF02F02D0
:1009C0002878A0F13001092914D80AEB8A0102EB3A
:1009D000410144F0020400EB010A6D1CF0E701CF75
:1009E0005FEA000A03D544F40054CAF1000A44F057
:1009F00002046D1C28782E2817D115F8010F44F039
:100A000004042A280ED06FF02F022878A0F13001BC
:100A100009290AD809EB890102EB410100EB010920
:100A20006D1CF2E757F8049B6D1C28786C280FD0DA
:100A300006DC4C2817D068280DD06A2814D104E0B1
:100A4000742810D07A280FD10DE044F400140AE085
:100A500044F4801401E044F440146978814202D1E6
:100A600004F580146D1C6D1C2A786E2A1FD00CDCD6
:100A7000632A31D004DC002A8BD0582A11D1A3E09C
:100A8000642A68D0692A0CD165E0732A2ED004DC70
:100A90006F2A73D0702A04D19BE0752A6FD0782A10
:100AA0006ED01046DDE90F129047761C50E1C4F37A
:100AB0000250022806D0032809D0042801CF09D00B
:100AC000066045E101CFF117C0E9006140E101CFC7
:100AD00006803DE106703BE117F8040B8DF800003D
:100AE00000208DF80100EB46012003E057F804BB1D
:100AF0004FF0FF3061074FF0000102D40DE008F124
:100B00000101884649450FDA8045F8DB1BF80810DB
:100B10000029F4D108E008F1010188468142FADB9E
:100B20001BF808100029F6D1DDE90F23AAEB080015
:100B30008146214600F036F9304400EB080604E017
:100B4000DDE90F121BF8010B9047B8F10108F7D24D
:100B500021464846F7E00A21C4F302534FF0000B48
:100B60000891022B04D001CFC117032B09D00AE052
:100B7000FF1D27F00707F7E8020108E032E01FE059
:100B800020E000B2C117042B01D140B2C117031EEF
:100B900071F1000307DA4FF0000CD0EB0C006CEBA6
:100BA00001012D2302E0230504D52B238DF82430E9
:100BB000012303E0E30701D02023F7E7984658E03C
:100BC0000A2110E010210EE010204FF0000B0890D9
:100BD0000CE010214FF0000B44F004044FF0080922
:100BE000089103E008214FF0000B0891C4F3025371
:100BF000022B04D001CF0021032B06D006E0FF1DFD
:100C000027F00707F7E8020103E080B2042B00D1C8
:100C1000C0B24FF0000823072BD5702A07D0DDF8AB
:100C200020C08CF0100C5CEA0B0C05D00EE04023C9
:100C30008DF82430012308E050EA010306D0302368
:100C40008DF824308DF8252002239846DDF820C049
:100C50008CF0080C5CEA0B0C0BD150EA010301D1BB
:100C6000630706D530238DF824304FF00108A9F131
:100C70000109582A04D038A20B9208AA0A920BE064
:100C80003AA2F9E75B46089AFFF7D8FB0B9B9B5CFF
:100C90000A9A521E0A92137050EA0102F2D10A987F
:100CA000ADEB000000F1200B600702D524F4803486
:100CB00001E04FF00109D94502DDA9EB0B0000E08E
:100CC000002000EB0B0141440890AAEB010AE0036D
:100CD00006D4DDE90F232146504600F063F80644B0
:100CE0004FF0000908E009A911F80900DDE90F1229
:100CF000904709F10109761CC145F4DBE0030CD5EE
:100D0000DDE90F232146504600F04CF8064404E08C
:100D1000DDE90F1230209047761C0899481E089094
:100D20000029F5DC08E00A980A990078491C0A9124
:100D3000DDE90F129047761CBBF10001ABF1010B0E
:100D4000F1DC21465046DDE90F2300F019F8064496
:100D50006D1C1BE60928010030313233343536373B
:100D600038396162636465660000000030313233F7
:100D70003435363738394142434445460000000097
:100D80002DE9F041044600251E461746880404D488
:100D900005E039462020B0476D1C641EF9D5284671
:100DA000BDE8F0812DE9F041044600251E4690463D
:100DB000C80301D5302700E02027880404D505E0CA
:100DC00041463846B0476D1C641EF9D52846BDE83B
:100DD000F081000010B502A0FFF73EFC002010BD1E
:100DE0001B5B324A1B5B480000F0BCF9D2A1D5A0C6
:100DF000FFF732FC9FE100F0D9F904461B2C03D128
:100E00000120D149087096E1CF480078012809D126
:100E10005B2C03D10220CC4908708CE10020CA4928
:100E200008708CE0C84800780228FAD10020C64932
:100E30000870412C26D108464088002804DD084669
:100E40004088401E488003E00020BF49488072E18E
:100E5000BD48408800EB8002BB48801D00EB82014A
:100E60001422643000F051FBB7486A30FFF7FEF9F6
:100E700080B2B549A1F88000A1F88200084601F0CF
:100E800031F858E1422C2FD1AF4841888088401E6C
:100E9000814205DAAC484088401CAB49488009E0F3
:100EA000A948808828B1A8488088401EA649488063
:100EB00000E040E1A448408800EB8002A248801D89
:100EC00000EB82011422643000F01FFB9E486A3060
:100ED000FFF7CCF980B29C49A1F88000A1F882000C
:100EE000084600F0FFFF26E1442C0ED19648B0F8EA
:100EF000820048B195A0FFF7AFFB9348B0F882009D
:100F0000401E9149A1F8820015E1432C17D18E486B
:100F1000B0F882008C49B1F8801088420EDA8A4815
:100F2000B0F882206A30815C89A0FFF795FB864883
:100F3000B0F88200401C8449A1F88200FBE00CB1AB
:100F4000FF2C00D1F7E0092C19D1002503E07FA088
:100F5000FFF782FB6D1C7C48B0F88200A842F6DCEB
:100F600079486A3000F0A4FF77486A30FFF77EF9CD
:100F700080B27549A1F88000A1F88200DBE07F2CE7
:100F800001D0082C53D17048B0F8820000B9D2E0EB
:100F90006D48B0F88000401E6B49A1F880000846FB
:100FA000B0F88200401EA1F882000846B0F8800028
:100FB000B1F88210884230DD634BB3F88030624E66
:100FC000B6F882609A1B604BB3F882305B1C5E4EB1
:100FD0006A3699195C4BB3F882606A33F01800F0F6
:100FE000B1FA00215848B0F880206A3081546A383C
:100FF000B0F882206A30111856A0FFF72DFB524836
:10100000B0F8825003E051A0FFF726FB6D1C4E485C
:10101000B0F88000A842F6DA08E050A0FFF71CFB09
:1010200000214948B0F880206A30815483E00D2CBB
:1010300001D00A2C1CD1444800F070FF48A0FFF7F3
:101040000BFB4148B0F880106A3000F083FD3AA1F4
:101050003CA0FFF701FB152200213B486A3000F05D
:1010600092FA00203849A1F88000A1F8820062E0DD
:101070003548B0F88000142803DB00203249A1F87D
:1010800080003148B0F882002F49B1F880108842C2
:101090002FDA2D4BB3F880302B4EB6F882609A1BB6
:1010A000294BB3F882606A33F1186A3BB3F8823097
:1010B0005B1C254E6A36981900F044FA2248B0F8B5
:1010C00082206A3084546A38B0F882206A3011185D
:1010D0001CA0FFF7C1FA1C48B0F8825003E01BA027
:1010E000FFF7BAFA6D1C1848B0F88000A842F6DC89
:1010F00008E01548B0F880206A308454214614A0D6
:10110000FFF7AAFA00241048B0F88000401C0E49EE
:10111000A1F880000846B0F88200401CA1F88200C7
:101120000846B0F88000142804DB0020A1F88000F5
:10113000A1F8820000BF5EE64C595F4F5941202F55
:101140003E00000025730000B408002008000000E5
:1011500025630000082573202008000008200800EF
:101160000D0A000003480449086004480449086067
:1011700000207047402300081C000020582300086E
:101180002000002000BF054A126802F04002002A39
:10119000F9D0C2B2014B1B1D1A60704700380140E4
:1011A00001480068704700000000002008B500BF3B
:1011B00001226946034800F066F80028F8D09DF83F
:1011C000000008BD240800202DE9F04704468846A9
:1011D00016461D46A06800F10109A0680540A9EB6C
:1011E0000500B04201D9304601E0A9EB05000746F1
:1011F000E16848193A46414600F087F9F21B08EBCE
:101200000701E06800F081F9BDE8F0872DE9F047BB
:1012100004460E4617461D46A06800F10109A06865
:101220000540A9EB0500B84201D9384601E0A9EB19
:1012300005008046E06841194246304600F065F9F5
:10124000A7EB080206EB0800E16800F05EF9BDE8D4
:10125000F0872DE9F04104460F461546D4E9000118
:10126000411AA068401C461AB54200D935462A46A4
:10127000394620462368FFF7A7FF206828442060EE
:101280002846BDE8F0812DE9F04104460F46154699
:10129000D4E90001461AB54200D935462A463946F6
:1012A00020466368FFF7B2FF606828446060284604
:1012B000BDE8F08170B505460C46224628466168B7
:1012C000FFF74EFA70BDD0E900215160D0E900125D
:1012D000116000604060704700604060704700002F
:1012E000044604F1440632A0216CFFF7B5F934A09E
:1012F000616AFFF7B1F936A0A16AFFF7ADF938A02E
:10130000E16AFFF7A9F93AA0216BFFF7A5F93CA024
:101310006168FFF7A1F93EA0A168FFF79DF940A021
:10132000E168FFF799F942A02169FFF795F944A018
:101330006169FFF791F946A0A169FFF78DF948A00F
:10134000E169FFF789F94AA0216AFFF785F94CA006
:10135000616BFFF781F94EA0A16BFFF77DF950A0FB
:10136000E16BFFF779F952A02168FFF775F956A0F4
:10137000FFF772F955A0FFF76FF9002500BF0FE0E6
:1013800056A03168FFF768F9361DE91705EB1171B2
:101390000911A5EB011111B94BA0FFF75DF96D1C07
:1013A000B5F5806FECDB48A0FFF756F900BFFEE70C
:1013B0007073723A203078253038780D0A000000BA
:1013C0007230303A203078253038780D0A0000002D
:1013D0007230313A203078253038780D0A0000001C
:1013E0007230323A203078253038780D0A0000000B
:1013F0007230333A203078253038780D0A000000FA
:101400007230343A203078253038780D0A000000E8
:101410007230353A203078253038780D0A000000D7
:101420007230363A203078253038780D0A000000C6
:101430007230373A203078253038780D0A000000B5
:101440007230383A203078253038780D0A000000A4
:101450007230393A203078253038780D0A00000093
:101460007231303A203078253038780D0A0000008B
:101470007231313A203078253038780D0A0000007A
:101480007231323A203078253038780D0A00000069
:10149000206C723A203078253038780D0A00000030
:1014A0002070633A203078253038780D0A0000002B
:1014B000206578635F72657475726E3A20307825A6
:1014C0003038780D0A0000000D0A00007374616363
:1014D0006B73206973203A200D0A0000253038789C
:1014E00020000000F0B5034600201C460D4608E031
:1014F00026782F78F61B301E00D004E0641C6D1C8B
:10150000521E002AF4D800BFF0BDF0B50D461446B7
:1015100001462A46914202D916198E4209D203E0A9
:1015200012F8016B01F8016B261EA4F10104F7D13A
:1015300007E0234603E05E1E975D8F555B1E002B80
:10154000F9D1F0BD70B50C46014623468B4210D24E
:101550009D188D420DD91144134405E05D1E2B46A4
:101560002E784D1E29462E70151EA2F10102F5D1CE
:1015700008E003E013F8015B01F8015B151EA2F11E
:101580000102F7D170BD30B5034601E003F8011B3D
:10159000141EA2F10102F9D130BD000070B504465D
:1015A000FEF700FE054604F14400FFF78CFE617D66
:1015B000094A02EBC1000168814201D1012100E02A
:1015C000002129B10548E1690068884303490860A2
:1015D0002846FEF7EBFD70BDD40400200800002073
:1015E000F8B5FEF7DFFD064636480068002864D0EF
:1015F00000276846FFF794F8044633480068007DEA
:1016000000F00700032818D12F480068407D00999A
:10161000884202D22C4804680FE02B480068407DC5
:101620000099884208D128480068007D00F0080031
:1016300010B92548046800E0012723480068844267
:101640002CD02249009808601F480568046047B103
:10165000287D20F0070040F0020028752846FFF79B
:1016600093F82046FFF79AFF207D20F0070040F016
:10167000030020751648006830B921462846FEF759
:1016800098FD3046FEF792FD11480068A0B1234650
:101690002A4621462846FEF78CFD0DE00A480068E0
:1016A000FFF77CFF08480068007D20F0070040F04D
:1016B000030005490968087500BF3046FEF776FD4E
:1016C000F8BD000008000020100000200C000020E1
:1016D00004000020F0B504460D461646301D20F0EB
:1016E000070040380146002203E00C4F41F8227009
:1016F000521C102AF9D30D624FF0000CC1F824C01F
:10170000C1F828C0C1F82CC0C1F830C04B638C634D
:101710004FF0807CC1F83CC0F0BD0000EFBEADDEF4
:1017200030B5034600200BE011F8015B1C78641B08
:1017300064B2201E02D113F8015B05B902E0521E0B
:10174000002AF1D100BF30BD70B50346A2B11846E2
:101750000C4600BF14F8016B00F8016B3EB902E0C3
:10176000002500F8015B551E2A1EF9D102E0551E26
:101770002A1EEFD100BF00BF184670BD2DE9F84FFB
:1017800004460D4616461F46DDE90AA8DDF83090EE
:1017900004F144000060406000BF6560A660E7603F
:1017A000C4F810A0D4E9033C63441A1F0D4BD4E9DC
:1017B0000101FFF78FFF206084F8168084F8158000
:1017C000002020622075C4F81890C4F824900346C5
:1017D00022460549009004F1280000F0C1F80020DD
:1017E000BDE8F88F2D0800085D08000870B50446B4
:1017F000207D00F00400042802D04FF0FF3070BDBF
:10180000FEF7D0FC0546207D20F0070040F00200E6
:10181000207504F14400FFF756FD04F12800FFF79E
:1018200066F82846FEF7C2FC2046FEF7ADFF002012
:10183000E5E710B50446A07D6075617D0120884014
:10184000E061042020752046FFF7D0FF002010BD86
:101850000EB520201E210201064BCDE90021029089
:10186000002205490548FFF789FF0448FFF7E1FF1B
:101870000EBD0000D405002081180008D407002008
:1018800010B50446FFF7B0FA10BD000070B5FEF7C2
:1018900089FC05460E480068401C0D4908600D484B
:1018A0000468606A401E6062606A50B9A069606244
:1018B000207D40F0080020752846FEF777FCFFF7F2
:1018C0008FFE2846FEF772FC00F006F870BD00009F
:1018D000000000201000002070B5FFF761FC0646F4
:1018E000FEF760FC05462BE01C4A116808460446DA
:1018F0006069301A6FF00041884220D22046FEF71E
:10190000E3FF207E00F0020018B9207E20F00100E5
:101910002076D4E902108847FFF742FC0646207E75
:1019200000F0020060B1207E00F0010040B1207E96
:1019300020F001002076204600F024F800E008E0C6
:1019400006480168814201D1012100E000210029FF
:10195000CAD000BF2846FEF729FC70BD1400002045
:101960002DE9F84304460D4616461F46DDF8208053
:101970003B46324629462046CDF80080FEF784FFDC
:10198000BDE8F8832DE9F84304460025FEF70AFC7C
:10199000804600272046FEF797FF207E20F00100BA
:1019A0002076FFF7FDFB216908446061244E009614
:1019B00000BF2EE01DE05DF8252011680B464FF0BA
:1019C000000C0CEBC50CA3EB0C02104642696369DA
:1019D000D21A00D108E042696369D21A6FF000435D
:1019E0009A4200D20CE000BF5DF8250000684DF877
:1019F00025005DF8250006EBC50149688842DAD16B
:101A000000BF2DB15DF825000830691C4DF821009C
:101A10006D1C002DCED0009801684C602160606084
:101A2000046000BF00BF207E40F0010020760FB1AF
:101A3000FFF7D6FD4046FEF7B9FB0020BDE8F8836E
:101A4000140000200EB500F09BF9FEF793FD002076
:101A5000144908601449C1F8A001192003214FF46A
:101A60000072124BCDE9002102900022104911486A
:101A7000FFF784FE0F48FFF7DCFE322003214FF40E
:101A800000720D4BCDE90021029000220B490C4859
:101A9000FFF774FE0A48FFF7CCFE00F009FB00BF19
:101AA000FEE7000084012142008021423400002032
:101AB000F12000083404002034020020F320000844
:101AC000840400202DE9F0478146002600271B48AA
:101AD000056827E006221AA12868FFF721FE00B159
:101AE0001FE0286800F106084846FEF7BFFB824663
:101AF000524641464846FFF713FE88B926B9474685
:101B00003846FEF7B3FB06464146384600F0AAFACF
:101B10000446B44200DA264641460BA0FEF79CFD7F
:101B200000BF08350A4800688542D3D327B1324642
:101B300039464846FFF708FEBDE8F0871C00002044
:101B40005F5F636D645F000025730D0A0000000095
:101B50002000002038B504460D4601E0641C6D1ECF
:101B60002DB120782028F9D020780928F6D00DB999
:101B7000002038BD6A4629462046FEF7C3FE08B954
:101B80000098F6E7204600E0401C0178202902D0AA
:101B900001780029F8D100210170214602A0FEF74A
:101BA0005BFD4FF0FF30E4E725733A20636F6D6D06
:101BB000616E64206E6F7420666F756E642E0D0A00
:101BC000000000002DE9F04106460D4600271048B0
:101BD000046815E006220FA12068FFF7A1FD00B1FF
:101BE0000DE02168881D2A463146FFF799FD28B986
:101BF000A81D2168085C08B9676805E000BF0834C3
:101C0000064800688442E5D300BF3846BDE8F0814D
:101C10001C0000205F5F636D645F000020000020F7
:101C200070B505460E460DA0FEF716FD1148046876
:101C30000DE0062210A12068FFF772FD00B105E05B
:101C40002068811D0EA0FEF707FD00BF08340E4876
:101C500000688442EDD3002070BD00004C595F4FF6
:101C600053207368656C6C20636F6D6D616E647377
:101C70003A0A0D001C0000205F5F636D645F000086
:101C80002573200D0A000000200000202DE9F047F8
:101C900082460E46904654460025002755E003E054
:101CA00000202070641C6D1C2078202802D0207831
:101CB000092801D1B542F3D3082F12D326A0FEF78D
:101CC000CBFC4FF0000906E058F829102AA0FEF7D7
:101CD000C3FC09F10109B945F6D328A0FEF7BCFC05
:101CE00035E0B54200D332E0207822281CD1641CB4
:101CF0006D1C48F827407F1C09E020785C2804D13F
:101D00006078222801D1641C6D1C641C6D1C207835
:101D1000222801D0B542F0D3B54200D317E000200D
:101D20002070641C6D1C10E048F827407F1C01E007
:101D3000641C6D1C2078202804D02078092801D04C
:101D4000B542F5D3B54200D301E0B542A7D300BFF9
:101D50003846BDE8F0870000546F6F206D616E79E2
:101D600020617267732021205765206F6E6C792087
:101D70005573653A0A000000257320000A0D000023
:101D800070B5FEF70FFA09250424012D76D9112D1F
:101D900074D23CB1012C05D0022C03D0032C01D00D
:101DA000042C6BD100223E4B1A61DA6014225A6176
:101DB00000229A61DA611A46126842F001021A6042
:101DC0001A465268374B1A40354B5A601A46126809
:101DD000354B1A40324B1A601A46126822F48022A0
:101DE0001A601A46526822F4FE025A6000229A6073
:101DF00011461946096841F480311A46116000BF46
:101E000027490968490C0029FAD04FF48061244A17
:101E10005160AD1E1146496841EA85415160114645
:101E2000496841F4803151602049096841F032012C
:101E30001E4A11601A49096841F08071184A116000
:101E400000BF17490968490E0029FAD014494968AA
:101E500041F00201124A516011464968C8B2022895
:101E600007D000BF801000F003000228FAD101E083
:101E700004E000BF2046FEF73FFC00E000BF4FF447
:101E8000E131482000F036F900F0AEF800F0FAF841
:101E900000F020F9FFF7DCFCFEF7BEFB70BD000090
:101EA000001002400000FFF8FFFFF6FE0020024095
:101EB00010B5044605A0FEF7CFFB2046FFF702FE53
:101EC000224603A105A0FEF7C7FB10BD0D0A0000C6
:101ED0004C595F4F5941202F3E0000002573257358
:101EE0000000000010B5044605A0FEF7B5FB04F1A4
:101EF0006A0205A107A0FEF7AFFB002010BD00009D
:101F00001B5B324B0D0000004C595F4F5941202F95
:101F10003E000000257325730000000070B50446E4
:101F2000B4F8800000285BD0A088052830DB14229C
:101F300004F16A0104F15600FFF7D4FA00284FD0EB
:101F400000250DE06A1C02EB8203A21D02EB830157
:101F500005EB850302EB83001422FFF7D6FA6D1C14
:101F6000042DEFDB05EB8502A11D01EB820014229D
:101F70000021FFF708FBB4F8802005EB8503A11DC5
:101F800001EB83006431FFF7C0FA0520A08027E051
:101F9000A08858B1A188491E01EB8102A11D01EB67
:101FA000820014226431FFF79DFAC8B1A0886080D6
:101FB000A18801EB8102A11D01EB82001422002106
:101FC000FFF7E1FAB4F88020A18801EB8103A11D9D
:101FD00001EB83006431FFF798FAA088401CA080D1
:101FE000A088608070BD000010B506A0FEF734FB2D
:101FF0000D490EA0FEF730FB0EA211A112A0FEF7B4
:102000002BFB10BD0D0A3D3D3D3D3D3D2053544150
:102010005254204C595F4F53204E4F57203D3D3D69
:102020003D3D3D0D0A0000003022000825730D0AD9
:10203000000000004A756C20323820323032330004
:10204000312E302E3000000056657273696F6E3A83
:10205000202573206275696C642025730D0A0D0AB2
:102060000000000010B503461A4601E0521C491C4E
:10207000107828B1087818B110780C78A042F5D003
:10208000D01A10BD0020014607E0074A02EBC1004C
:102090000060406000BF481C01462029F5D30020A5
:1020A000024A106070470000D4040020080000209D
:1020B00038B56846FEF734FB044605480460204600
:1020C000FFF76CFA032020752046FEF7A0F838BD14
:1020D0001000002010B5002405E0044901EBC40005
:1020E000FFF7FAF8641C002CF7D010BD1400002094
:1020F000704770472DE9FC5F05460E4643488069EE
:1021000040F00400414988610846806940F48040FD
:1021100088613F48006820F47F603D4908600846B8
:10212000006840F40B6008603848C06840F48040A4
:102130003649C8600846C06820F48040C860300155
:10214000FEF763F98046334905FB01F0FEF75DF9C0
:1021500081464146FEF71BF907463846FEF75AF915
:1021600084B22046FEF751F982463946FEF7DAF886
:1021700081464FF08341FEF7D8F88046FEF74AF9D2
:1021800080B201904FF6FF7000EA041401982044D9
:1021900084B221480460001D006842F20C0108432B
:1021A0001D49091D08600846006840F020000860CD
:1021B0004FF02508B8F1000F03DB4046FEF75CFA4C
:1021C00000E000BF4FF0250A4FF00E084FF0000965
:1021D00012480068C0F3022BB8F1100F0DD2B9F10C
:1021E000100F0AD24A4641465846FEF750FA009070
:1021F00050460099FEF76CFA00E000BF01238022F0
:1022000007490848FEF7A0FABDE8FC9F001002400D
:102210000408014040420F00083801400CED00E086
:10222000340800202408002010B5FFF7DDFE10BDA3
:102230005F5F5F205F5F2020205F5F20205F5F5F28
:102240005F2020205F5F5F5F5F5F0909090D0A7CE7
:10225000207C205C5C2020202F2F2F2F205F5F20F0
:102260005C5C2F2F5F5F5F5F7C202020200D0A7C4D
:10227000207C20205C5C202F2F207C207C20207C58
:10228000207C7C7C0909202020202020200D0A7C35
:10229000207C2020205C562F20207C207C20207C4D
:1022A000207C5C5C5F5F5F5F20202020202020205E
:1022B00020200D0A7C207C2020207C207C20207C7B
:1022C000207C20207C207C20202020205C5C202082
:1022D0002020200D0A7C207C5F5F5F7C207C2020FA
:1022E0007C207C5F5F7C207C5F5F5F5F5F7C7C200D
:1022F0002020202020200D0A7C5F5F5F5F5F7C5FD5
:102300007C20205C5C5F5F5F5F2F2F7C5F5F5F5F87
:102310002F2F202020202020200D0A005F5F636DDA
:10232000645F68656C70005F5F636D645F636C65BC
:102330006172005F5F636D645F766572000000002C
:102340001C230008211C000827230008D50D0008C5
:102350003323000829220008782300080000002009
:10236000340000006A070008AC2300083400002095
:10237000040D00007A0700080000000000000000C3
:10238000000000000000000000000000000000004D
:10239000000000000000000000000000000000003D
:0C23A00000000000000000000000000031
:0400000508000131BD
:00000001FF
